:05019A00010800C10096
:10018600EF4E600F7D027CC7DCFEDDFCEF1F70F0DA
:030196001E80EDDB
:010199002243
:10008F0075A0FE7FF47E011201861200E775A0FDB8
:10009F007FF47E011201861200E775A0FB7FF47ECC
:1000AF00011201861200E775A0F77FF47E0112019D
:1000BF00861200E775A0EF7FF47E01120186120011
:1000CF00E775A0DF7FF47E011201861200E775A0AD
:0800DF00BF7FF47E01120186CF
:1000E70020B0107F147E0012018620B00630B0FDCC
:1000F7007F012220B1107F147E0012018620B106F5
:0901070030B1FD7F02227F0022CD
:10011000E5081460101460362402704112008F75D7
:10012000A07F02015A75A07F1200D375A0DF1200D4
:10013000E075A0EF1200E075A0F71200E075A0FBDB
:100140001200E075A0FD1200E075A0FE800C120008
:0E0150008F75A07F1200E075A0FF1200E02264
:10015E001200E7BF010C0508E508D394024003E442
:10016E00F508BF0202B20020000512011080E17FE7
:08017E00327E0012018680D8D8
:03000000020003F8
:0C000300787FE4F6D8FD75812002004AE9
:10000F0002015EE493A3F8E493A34003F68001F2A8
:10001F0008DFF48029E493A3F85407240CC8C333F2
:10002F00C4540F4420C8834004F456800146F6DFC1
:10003F00E4800B010204081020408090019AE47EB6
:10004F00019360BCA3FF543F30E509541FFEE493B6
:10005F00A360010ECF54C025E060A840B8E493A37D
:10006F00FAE493A3F8E493A3C8C582C8CAC583CAA8
:10007F00F0A3C8C582C8CAC583CADFE9DEE780BE60
:01019F00005F
:00000001FF
